{
  "contractName": "LeeLa",
  "abi": [
    {
      "constant": true,
      "inputs": [],
      "name": "name",
      "outputs": [
        {
          "name": "",
          "type": "string"
        }
      ],
      "payable": false,
      "stateMutability": "view",
      "type": "function"
    },
    {
      "constant": false,
      "inputs": [
        {
          "name": "spender",
          "type": "address"
        },
        {
          "name": "value",
          "type": "uint256"
        }
      ],
      "name": "approve",
      "outputs": [
        {
          "name": "",
          "type": "bool"
        }
      ],
      "payable": false,
      "stateMutability": "nonpayable",
      "type": "function"
    },
    {
      "constant": true,
      "inputs": [],
      "name": "totalSupply",
      "outputs": [
        {
          "name": "",
          "type": "uint256"
        }
      ],
      "payable": false,
      "stateMutability": "view",
      "type": "function"
    },
    {
      "constant": false,
      "inputs": [
        {
          "name": "sender",
          "type": "address"
        },
        {
          "name": "recipient",
          "type": "address"
        },
        {
          "name": "amount",
          "type": "uint256"
        }
      ],
      "name": "transferFrom",
      "outputs": [
        {
          "name": "",
          "type": "bool"
        }
      ],
      "payable": false,
      "stateMutability": "nonpayable",
      "type": "function"
    },
    {
      "constant": true,
      "inputs": [],
      "name": "decimals",
      "outputs": [
        {
          "name": "",
          "type": "uint8"
        }
      ],
      "payable": false,
      "stateMutability": "view",
      "type": "function"
    },
    {
      "constant": false,
      "inputs": [
        {
          "name": "spender",
          "type": "address"
        },
        {
          "name": "addedValue",
          "type": "uint256"
        }
      ],
      "name": "increaseAllowance",
      "outputs": [
        {
          "name": "",
          "type": "bool"
        }
      ],
      "payable": false,
      "stateMutability": "nonpayable",
      "type": "function"
    },
    {
      "constant": true,
      "inputs": [
        {
          "name": "account",
          "type": "address"
        }
      ],
      "name": "balanceOf",
      "outputs": [
        {
          "name": "",
          "type": "uint256"
        }
      ],
      "payable": false,
      "stateMutability": "view",
      "type": "function"
    },
    {
      "constant": true,
      "inputs": [
        {
          "name": "sender",
          "type": "address"
        }
      ],
      "name": "checkFreeze",
      "outputs": [
        {
          "name": "",
          "type": "bool"
        }
      ],
      "payable": false,
      "stateMutability": "view",
      "type": "function"
    },
    {
      "constant": true,
      "inputs": [],
      "name": "symbol",
      "outputs": [
        {
          "name": "",
          "type": "string"
        }
      ],
      "payable": false,
      "stateMutability": "view",
      "type": "function"
    },
    {
      "constant": false,
      "inputs": [
        {
          "name": "spender",
          "type": "address"
        },
        {
          "name": "subtractedValue",
          "type": "uint256"
        }
      ],
      "name": "decreaseAllowance",
      "outputs": [
        {
          "name": "",
          "type": "bool"
        }
      ],
      "payable": false,
      "stateMutability": "nonpayable",
      "type": "function"
    },
    {
      "constant": false,
      "inputs": [
        {
          "name": "recipient",
          "type": "address"
        },
        {
          "name": "amount",
          "type": "uint256"
        }
      ],
      "name": "transfer",
      "outputs": [
        {
          "name": "",
          "type": "bool"
        }
      ],
      "payable": false,
      "stateMutability": "nonpayable",
      "type": "function"
    },
    {
      "constant": true,
      "inputs": [
        {
          "name": "owner",
          "type": "address"
        },
        {
          "name": "spender",
          "type": "address"
        }
      ],
      "name": "allowance",
      "outputs": [
        {
          "name": "",
          "type": "uint256"
        }
      ],
      "payable": false,
      "stateMutability": "view",
      "type": "function"
    },
    {
      "inputs": [
        {
          "name": "_game_id",
          "type": "uint256"
        },
        {
          "name": "_name",
          "type": "string"
        },
        {
          "name": "_game_times",
          "type": "uint256"
        },
        {
          "name": "_price",
          "type": "uint256"
        },
        {
          "name": "_price_upper_rate",
          "type": "uint256"
        }
      ],
      "payable": false,
      "stateMutability": "nonpayable",
      "type": "constructor"
    },
    {
      "anonymous": false,
      "inputs": [
        {
          "indexed": false,
          "name": "bidder",
          "type": "address"
        },
        {
          "indexed": false,
          "name": "amount",
          "type": "uint256"
        },
        {
          "indexed": false,
          "name": "event_msg",
          "type": "string"
        }
      ],
      "name": "SendRecommend",
      "type": "event"
    },
    {
      "anonymous": false,
      "inputs": [
        {
          "indexed": false,
          "name": "bidder",
          "type": "address"
        },
        {
          "indexed": false,
          "name": "amount",
          "type": "uint256"
        },
        {
          "indexed": false,
          "name": "event_msg",
          "type": "string"
        }
      ],
      "name": "SendFeeBack",
      "type": "event"
    },
    {
      "anonymous": false,
      "inputs": [
        {
          "indexed": false,
          "name": "bidder",
          "type": "address"
        },
        {
          "indexed": false,
          "name": "amount",
          "type": "uint256"
        },
        {
          "indexed": false,
          "name": "event_msg",
          "type": "string"
        }
      ],
      "name": "SendPlatformFee",
      "type": "event"
    },
    {
      "anonymous": false,
      "inputs": [
        {
          "indexed": false,
          "name": "bidder",
          "type": "address"
        },
        {
          "indexed": false,
          "name": "amount",
          "type": "uint256"
        },
        {
          "indexed": false,
          "name": "event_msg",
          "type": "string"
        }
      ],
      "name": "CalcBonus",
      "type": "event"
    },
    {
      "anonymous": false,
      "inputs": [
        {
          "indexed": false,
          "name": "bidder",
          "type": "address"
        },
        {
          "indexed": false,
          "name": "amount",
          "type": "uint256"
        },
        {
          "indexed": false,
          "name": "event_msg",
          "type": "string"
        }
      ],
      "name": "TransferAmount",
      "type": "event"
    },
    {
      "anonymous": false,
      "inputs": [
        {
          "indexed": false,
          "name": "bidder",
          "type": "address"
        },
        {
          "indexed": false,
          "name": "amount",
          "type": "uint256"
        },
        {
          "indexed": false,
          "name": "buy_time",
          "type": "uint256"
        },
        {
          "indexed": false,
          "name": "event_msg",
          "type": "string"
        }
      ],
      "name": "BuyGameEvent",
      "type": "event"
    },
    {
      "anonymous": false,
      "inputs": [
        {
          "indexed": true,
          "name": "from",
          "type": "address"
        },
        {
          "indexed": true,
          "name": "to",
          "type": "address"
        },
        {
          "indexed": false,
          "name": "value",
          "type": "uint256"
        }
      ],
      "name": "Transfer",
      "type": "event"
    },
    {
      "anonymous": false,
      "inputs": [
        {
          "indexed": true,
          "name": "owner",
          "type": "address"
        },
        {
          "indexed": true,
          "name": "spender",
          "type": "address"
        },
        {
          "indexed": false,
          "name": "value",
          "type": "uint256"
        }
      ],
      "name": "Approval",
      "type": "event"
    },
    {
      "anonymous": false,
      "inputs": [
        {
          "indexed": false,
          "name": "target",
          "type": "address"
        },
        {
          "indexed": false,
          "name": "frozen",
          "type": "bool"
        }
      ],
      "name": "FrozenFunds",
      "type": "event"
    },
    {
      "constant": true,
      "inputs": [],
      "name": "getNow",
      "outputs": [
        {
          "name": "nowvalue",
          "type": "uint256"
        }
      ],
      "payable": false,
      "stateMutability": "view",
      "type": "function"
    },
    {
      "constant": true,
      "inputs": [],
      "name": "getDecimals",
      "outputs": [
        {
          "name": "",
          "type": "uint256"
        }
      ],
      "payable": false,
      "stateMutability": "view",
      "type": "function"
    },
    {
      "constant": true,
      "inputs": [],
      "name": "getOwner",
      "outputs": [
        {
          "name": "",
          "type": "address"
        }
      ],
      "payable": false,
      "stateMutability": "view",
      "type": "function"
    },
    {
      "constant": true,
      "inputs": [],
      "name": "getCurrentRoundInfo",
      "outputs": [
        {
          "name": "game_id",
          "type": "uint256"
        },
        {
          "name": "name",
          "type": "string"
        },
        {
          "name": "begin_time",
          "type": "uint256"
        },
        {
          "name": "game_times",
          "type": "uint256"
        },
        {
          "name": "last_buy_time",
          "type": "uint256"
        },
        {
          "name": "over_time",
          "type": "uint256"
        },
        {
          "name": "price",
          "type": "uint256"
        },
        {
          "name": "price_upper_rate",
          "type": "uint256"
        },
        {
          "name": "status",
          "type": "uint8"
        },
        {
          "name": "prize_value",
          "type": "uint256"
        },
        {
          "name": "bonus_value",
          "type": "uint256"
        },
        {
          "name": "buy_count",
          "type": "uint256"
        },
        {
          "name": "last_buy_user_address",
          "type": "address"
        },
        {
          "name": "next_change_rate_count",
          "type": "uint256"
        }
      ],
      "payable": false,
      "stateMutability": "view",
      "type": "function"
    },
    {
      "constant": true,
      "inputs": [],
      "name": "askprice",
      "outputs": [
        {
          "name": "price",
          "type": "uint256"
        }
      ],
      "payable": false,
      "stateMutability": "view",
      "type": "function"
    },
    {
      "constant": false,
      "inputs": [
        {
          "name": "recommend_user",
          "type": "address"
        }
      ],
      "name": "buy_token",
      "outputs": [
        {
          "name": "success",
          "type": "bool"
        }
      ],
      "payable": true,
      "stateMutability": "payable",
      "type": "function"
    },
    {
      "constant": true,
      "inputs": [
        {
          "name": "buyer",
          "type": "address"
        }
      ],
      "name": "getBuyerBuyCount",
      "outputs": [
        {
          "name": "",
          "type": "uint256"
        }
      ],
      "payable": false,
      "stateMutability": "view",
      "type": "function"
    },
    {
      "constant": true,
      "inputs": [
        {
          "name": "buyer",
          "type": "address"
        }
      ],
      "name": "getBuerIncomeInvestment",
      "outputs": [
        {
          "name": "income",
          "type": "uint256"
        },
        {
          "name": "investment",
          "type": "uint256"
        },
        {
          "name": "recommend_value",
          "type": "uint256"
        },
        {
          "name": "buy_count",
          "type": "uint256"
        }
      ],
      "payable": false,
      "stateMutability": "view",
      "type": "function"
    },
    {
      "constant": true,
      "inputs": [],
      "name": "checkGameAndPrize",
      "outputs": [
        {
          "name": "",
          "type": "bool"
        }
      ],
      "payable": false,
      "stateMutability": "view",
      "type": "function"
    },
    {
      "constant": false,
      "inputs": [],
      "name": "PrizeGame",
      "outputs": [
        {
          "name": "",
          "type": "bool"
        }
      ],
      "payable": false,
      "stateMutability": "nonpayable",
      "type": "function"
    },
    {
      "constant": false,
      "inputs": [],
      "name": "kill",
      "outputs": [
        {
          "name": "",
          "type": "bool"
        }
      ],
      "payable": false,
      "stateMutability": "nonpayable",
      "type": "function"
    },
    {
      "constant": false,
      "inputs": [
        {
          "name": "target",
          "type": "address"
        },
        {
          "name": "freeze",
          "type": "bool"
        }
      ],
      "name": "freezeAccount",
      "outputs": [
        {
          "name": "",
          "type": "bool"
        }
      ],
      "payable": false,
      "stateMutability": "nonpayable",
      "type": "function"
    },
    {
      "constant": false,
      "inputs": [
        {
          "name": "mintedAmount",
          "type": "uint256"
        }
      ],
      "name": "mintToken",
      "outputs": [
        {
          "name": "",
          "type": "bool"
        }
      ],
      "payable": false,
      "stateMutability": "nonpayable",
      "type": "function"
    }
  ],
  "bytecode": "0x608060405260066007556012600855600a600955600a8055602d600c556005600d55620f42406023553480156200003557600080fd5b50d380156200004357600080fd5b50d280156200005157600080fd5b5060405162005f5538038062005f55833981018060405260a08110156200007757600080fd5b810190808051906020019092919080516401000000008111156200009a57600080fd5b82810190506020810184811115620000b157600080fd5b8151856001820283011164010000000082111715620000cf57600080fd5b50509291906020018051906020019092919080519060200190929190805190602001909291905050506040805190810160405280600481526020017f4c495241000000000000000000000000000000000000000000000000000000008152506040805190810160405280600481526020017f4c4952410000000000000000000000000000000000000000000000000000000081525060075482600490805190602001906200017f929190620007ad565b50816005908051906020019062000198929190620007ad565b5080600660006101000a81548160ff021916908360ff16021790555050505033600b60006101000a81548173ffffffffffffffffffffffffffffffffffffffff021916908373ffffffffffffffffffffffffffffffffffffffff1602179055506000429050600081905060006200022786846200048a6401000000000262004266179091906401000000009004565b90506000600754600a0a8602905060006200025f600854600a0a87620005156401000000000262004ab1179091906401000000009004565b9050600060469050610200604051908101604052808c81526020018b81526020018781526020018a815260200186815260200185815260200184815260200184815260200183815260200183815260200160006001811115620002be57fe5b8152602001600081526020016000815260200160008152602001600b60009054906101000a900473ffffffffffffffffffffffffffffffffffffffff1673ffffffffffffffffffffffffffffffffffffffff16815260200182815250600e6000820151816000015560208201518160010190805190602001906200034492919062000834565b5060408201518160020155606082015181600301556080820151816004015560a0820151816005015560c0820151816006015560e082015181600701556101008201518160080155610120820151816009015561014082015181600a0160006101000a81548160ff02191690836001811115620003bd57fe5b021790555061016082015181600b015561018082015181600c01556101a082015181600d01556101c082015181600e0160006101000a81548173ffffffffffffffffffffffffffffffffffffffff021916908373ffffffffffffffffffffffffffffffffffffffff1602179055506101e082015181600f0155905050620004793362000457620005b8640100000000026401000000009004565b60ff16600a0a64e8d4a5100002620005cf640100000000026401000000009004565b5050505050505050505050620008e3565b60008082840190508381101515156200050b576040517f08c379a000000000000000000000000000000000000000000000000000000000815260040180806020018281038252601b8152602001807f536166654d6174683a206164646974696f6e206f766572666c6f77000000000081525060200191505060405180910390fd5b8091505092915050565b6000808314156200052a5760009050620005b2565b60008214156200053e5760009050620005b2565b600082840290508284828115156200055257fe5b04141515620005ad576040517f08c379a000000000000000000000000000000000000000000000000000000000815260040180806020018281038252602181526020018062005f346021913960400191505060405180910390fd5b809150505b92915050565b6000600660009054906101000a900460ff16905090565b600073ffffffffffffffffffffffffffffffffffffffff168273ffffffffffffffffffffffffffffffffffffffff161415151562000675576040517f08c379a000000000000000000000000000000000000000000000000000000000815260040180806020018281038252601f8152602001807f45524332303a206d696e7420746f20746865207a65726f20616464726573730081525060200191505060405180910390fd5b6200069a816002546200048a6401000000000262004266179091906401000000009004565b60028190555062000701816000808573ffffffffffffffffffffffffffffffffffffffff1673ffffffffffffffffffffffffffffffffffffffff168152602001908152602001600020546200048a6401000000000262004266179091906401000000009004565b6000808473ffffffffffffffffffffffffffffffffffffffff1673ffffffffffffffffffffffffffffffffffffffff168152602001908152602001600020819055508173ffffffffffffffffffffffffffffffffffffffff16600073ffffffffffffffffffffffffffffffffffffffff167fddf252ad1be2c89b69c2b068fc378daa952ba7f163c4a11628f55a4df523b3ef836040518082815260200191505060405180910390a35050565b828054600181600116156101000203166002900490600052602060002090601f016020900481019282601f10620007f057805160ff191683800117855562000821565b8280016001018555821562000821579182015b828111156200082057825182559160200191906001019062000803565b5b509050620008309190620008bb565b5090565b828054600181600116156101000203166002900490600052602060002090601f016020900481019282601f106200087757805160ff1916838001178555620008a8565b82800160010185558215620008a8579182015b82811115620008a75782518255916020019190600101906200088a565b5b509050620008b79190620008bb565b5090565b620008e091905b80821115620008dc576000816000905550600101620008c2565b5090565b90565b61564180620008f36000396000f3fe608060405260043610610183576000357c01000000000000000000000000000000000000000000000000000000009004806372e2f8f5116100ee578063a457c2d7116100a7578063c634d03211610081578063c634d03214610bd3578063dd62ed3e14610c40578063e724529c14610cdf578063f0141d8414610d6e57610183565b8063a457c2d714610a74578063a9059cbb14610b01578063bbe4fd5014610b8e57610183565b806372e2f8f5146106f2578063747dff42146107755780637beeee09146108b4578063893d20e8146108fd57806395d89b411461096e578063a155e20414610a1857610183565b806330a218121161014057806330a218121461043f578063313ce567146104d3578063332e64e71461051e578063395093511461059d57806341c0e1b51461062a57806370a082311461067357610183565b806306fdde0314610188578063095ea7b31461023257806318160ddd146102bf5780631986c8111461030457806323b872dd1461034d57806325527ece146103fa575b600080fd5b34801561019457600080fd5b50d380156101a157600080fd5b50d280156101ae57600080fd5b506101b7610db3565b6040518080602001828103825283818151815260200191508051906020019080838360005b838110156101f75780820151818401526020810190506101dc565b50505050905090810190601f1680156102245780820380516001836020036101000a031916815260200191505b509250505060405180910390f35b34801561023e57600080fd5b50d3801561024b57600080fd5b50d2801561025857600080fd5b506102a56004803603604081101561026f57600080fd5b81019080803573ffffffffffffffffffffffffffffffffffffffff16906020019092919080359060200190929190505050610e55565b604051808215151515815260200191505060405180910390f35b3480156102cb57600080fd5b50d380156102d857600080fd5b50d280156102e557600080fd5b506102ee610e6c565b6040518082815260200191505060405180910390f35b34801561031057600080fd5b50d3801561031d57600080fd5b50d2801561032a57600080fd5b50610333610e76565b604051808215151515815260200191505060405180910390f35b34801561035957600080fd5b50d3801561036657600080fd5b50d2801561037357600080fd5b506103e06004803603606081101561038a57600080fd5b81019080803573ffffffffffffffffffffffffffffffffffffffff169060200190929190803573ffffffffffffffffffffffffffffffffffffffff16906020019092919080359060200190929190505050611620565b604051808215151515815260200191505060405180910390f35b34801561040657600080fd5b50d3801561041357600080fd5b50d2801561042057600080fd5b506104296116d1565b6040518082815260200191505060405180910390f35b34801561044b57600080fd5b50d3801561045857600080fd5b50d2801561046557600080fd5b506104a86004803603602081101561047c57600080fd5b81019080803573ffffffffffffffffffffffffffffffffffffffff16906020019092919050505061189e565b6040518085815260200184815260200183815260200182815260200194505050505060405180910390f35b3480156104df57600080fd5b50d380156104ec57600080fd5b50d280156104f957600080fd5b50610502611a24565b604051808260ff1660ff16815260200191505060405180910390f35b34801561052a57600080fd5b50d3801561053757600080fd5b50d2801561054457600080fd5b506105876004803603602081101561055b57600080fd5b81019080803573ffffffffffffffffffffffffffffffffffffffff169060200190929190505050611a3b565b6040518082815260200191505060405180910390f35b3480156105a957600080fd5b50d380156105b657600080fd5b50d280156105c357600080fd5b50610610600480360360408110156105da57600080fd5b81019080803573ffffffffffffffffffffffffffffffffffffffff16906020019092919080359060200190929190505050611a84565b604051808215151515815260200191505060405180910390f35b34801561063657600080fd5b50d3801561064357600080fd5b50d2801561065057600080fd5b50610659611b29565b604051808215151515815260200191505060405180910390f35b34801561067f57600080fd5b50d3801561068c57600080fd5b50d2801561069957600080fd5b506106dc600480360360208110156106b057600080fd5b81019080803573ffffffffffffffffffffffffffffffffffffffff169060200190929190505050611e87565b6040518082815260200191505060405180910390f35b3480156106fe57600080fd5b50d3801561070b57600080fd5b50d2801561071857600080fd5b5061075b6004803603602081101561072f57600080fd5b81019080803573ffffffffffffffffffffffffffffffffffffffff169060200190929190505050611ecf565b604051808215151515815260200191505060405180910390f35b34801561078157600080fd5b50d3801561078e57600080fd5b50d2801561079b57600080fd5b506107a4611f25565b604051808f8152602001806020018e81526020018d81526020018c81526020018b81526020018a81526020018981526020018860018111156107e257fe5b60ff1681526020018781526020018681526020018581526020018473ffffffffffffffffffffffffffffffffffffffff1673ffffffffffffffffffffffffffffffffffffffff16815260200183815260200182810382528f818151815260200191508051906020019080838360005b8381101561086c578082015181840152602081019050610851565b50505050905090810190601f1680156108995780820380516001836020036101000a031916815260200191505b509f5050505050505050505050505050505060405180910390f35b3480156108c057600080fd5b50d380156108cd57600080fd5b50d280156108da57600080fd5b506108e361219f565b604051808215151515815260200191505060405180910390f35b34801561090957600080fd5b50d3801561091657600080fd5b50d2801561092357600080fd5b5061092c6124f5565b604051808273ffffffffffffffffffffffffffffffffffffffff1673ffffffffffffffffffffffffffffffffffffffff16815260200191505060405180910390f35b34801561097a57600080fd5b50d3801561098757600080fd5b50d2801561099457600080fd5b5061099d61251f565b6040518080602001828103825283818151815260200191508051906020019080838360005b838110156109dd5780820151818401526020810190506109c2565b50505050905090810190601f168015610a0a5780820380516001836020036101000a031916815260200191505b509250505060405180910390f35b610a5a60048036036020811015610a2e57600080fd5b81019080803573ffffffffffffffffffffffffffffffffffffffff1690602001909291905050506125c1565b604051808215151515815260200191505060405180910390f35b348015610a8057600080fd5b50d38015610a8d57600080fd5b50d28015610a9a57600080fd5b50610ae760048036036040811015610ab157600080fd5b81019080803573ffffffffffffffffffffffffffffffffffffffff16906020019092919080359060200190929190505050613ca6565b604051808215151515815260200191505060405180910390f35b348015610b0d57600080fd5b50d38015610b1a57600080fd5b50d28015610b2757600080fd5b50610b7460048036036040811015610b3e57600080fd5b81019080803573ffffffffffffffffffffffffffffffffffffffff16906020019092919080359060200190929190505050613d4b565b604051808215151515815260200191505060405180910390f35b348015610b9a57600080fd5b50d38015610ba757600080fd5b50d28015610bb457600080fd5b50610bbd613d62565b6040518082815260200191505060405180910390f35b348015610bdf57600080fd5b50d38015610bec57600080fd5b50d28015610bf957600080fd5b50610c2660048036036020811015610c1057600080fd5b8101908080359060200190929190505050613d6a565b604051808215151515815260200191505060405180910390f35b348015610c4c57600080fd5b50d38015610c5957600080fd5b50d28015610c6657600080fd5b50610cc960048036036040811015610c7d57600080fd5b81019080803573ffffffffffffffffffffffffffffffffffffffff169060200190929190803573ffffffffffffffffffffffffffffffffffffffff169060200190929190505050613e58565b6040518082815260200191505060405180910390f35b348015610ceb57600080fd5b50d38015610cf857600080fd5b50d28015610d0557600080fd5b50610d5460048036036040811015610d1c57600080fd5b81019080803573ffffffffffffffffffffffffffffffffffffffff169060200190929190803515159060200190929190505050613edf565b604051808215151515815260200191505060405180910390f35b348015610d7a57600080fd5b50d38015610d8757600080fd5b50d28015610d9457600080fd5b50610d9d614061565b6040518082815260200191505060405180910390f35b606060048054600181600116156101000203166002900480601f016020809104026020016040519081016040528092919081815260200182805460018160011615610100020316600290048015610e4b5780601f10610e2057610100808354040283529160200191610e4b565b820191906000526020600020905b815481529060010190602001808311610e2e57829003601f168201915b5050505050905090565b6000610e6233848461406b565b6001905092915050565b6000600254905090565b6000600b60009054906101000a900473ffffffffffffffffffffffffffffffffffffffff1673ffffffffffffffffffffffffffffffffffffffff163373ffffffffffffffffffffffffffffffffffffffff16141515610f20576040517f08c379a00000000000000000000000000000000000000000000000000000000081526004018080602001828103825260228152602001806155686022913960400191505060405180910390fd5b3373ffffffffffffffffffffffffffffffffffffffff16600b60009054906101000a900473ffffffffffffffffffffffffffffffffffffffff1673ffffffffffffffffffffffffffffffffffffffff16141515610fe5576040517f08c379a00000000000000000000000000000000000000000000000000000000081526004018080602001828103825260128152602001807f4d757374204f776e65722045786563757465000000000000000000000000000081525060200191505060405180910390fd5b6000429050610ff261539e565b600e610200604051908101604052908160008201548152602001600182018054600181600116156101000203166002900480601f0160208091040260200160405190810160405280929190818152602001828054600181600116156101000203166002900480156110a45780601f10611079576101008083540402835291602001916110a4565b820191906000526020600020905b81548152906001019060200180831161108757829003601f168201915b505050505081526020016002820154815260200160038201548152602001600482015481526020016005820154815260200160068201548152602001600782015481526020016008820154815260200160098201548152602001600a820160009054906101000a900460ff16600181111561111b57fe5b600181111561112657fe5b8152602001600b8201548152602001600c8201548152602001600d8201548152602001600e820160009054906101000a900473ffffffffffffffffffffffffffffffffffffffff1673ffffffffffffffffffffffffffffffffffffffff1673ffffffffffffffffffffffffffffffffffffffff168152602001600f820154815250509050818160a0015111151561161657600073ffffffffffffffffffffffffffffffffffffffff16816101c0015173ffffffffffffffffffffffffffffffffffffffff16141515611253576000816101600151111561125257806101c0015173ffffffffffffffffffffffffffffffffffffffff166108fc8261016001519081150290604051600060405180830381858888f19350505050158015611250573d6000803e3d6000fd5b505b5b60008090505b601e805490508110156113c5576000601e8281548110151561127757fe5b9060005260206000200160009054906101000a900473ffffffffffffffffffffffffffffffffffffffff169050601f60008273ffffffffffffffffffffffffffffffffffffffff1673ffffffffffffffffffffffffffffffffffffffff16815260200190815260200160002060008082016000905560018201600090556002820160006101000a81549073ffffffffffffffffffffffffffffffffffffffff02191690556002820160146101000a81549060ff02191690555050602060008273ffffffffffffffffffffffffffffffffffffffff1673ffffffffffffffffffffffffffffffffffffffff16815260200190815260200160002060009055602160008273ffffffffffffffffffffffffffffffffffffffff1673ffffffffffffffffffffffffffffffffffffffff16815260200190815260200160002060009055508080600101915050611259565b50601e60006113d4919061543d565b6000429050600081905060006113f784606001518461426690919063ffffffff16565b905060008460c00151905060008561010001519050600060469050600061142c6001896000015161426690919063ffffffff16565b90506102006040519081016040528082815260200189602001518152602001888152602001896060015181526020018781526020018681526020018581526020018581526020018481526020018481526020016000600181111561148c57fe5b8152602001600081526020016000815260200160008152602001600b60009054906101000a900473ffffffffffffffffffffffffffffffffffffffff1673ffffffffffffffffffffffffffffffffffffffff16815260200183815250600e60008201518160000155602082015181600101908051906020019061151092919061545e565b5060408201518160020155606082015181600301556080820151816004015560a0820151816005015560c0820151816006015560e082015181600701556101008201518160080155610120820151816009015561014082015181600a0160006101000a81548160ff0219169083600181111561158857fe5b021790555061016082015181600b015561018082015181600c01556101a082015181600d01556101c082015181600e0160006101000a81548173ffffffffffffffffffffffffffffffffffffffff021916908373ffffffffffffffffffffffffffffffffffffffff1602179055506101e082015181600f01559050506001995050505050505050505061161d565b6000925050505b90565b600061162d8484846142f0565b6116c684336116c185600160008a73ffffffffffffffffffffffffffffffffffffffff1673ffffffffffffffffffffffffffffffffffffffff16815260200190815260200160002060003373ffffffffffffffffffffffffffffffffffffffff1673ffffffffffffffffffffffffffffffffffffffff1681526020019081526020016000205461470890919063ffffffff16565b61406b565b600190509392505050565b60006116db61539e565b600e610200604051908101604052908160008201548152602001600182018054600181600116156101000203166002900480601f01602080910402602001604051908101604052809291908181526020018280546001816001161561010002031660029004801561178d5780601f106117625761010080835404028352916020019161178d565b820191906000526020600020905b81548152906001019060200180831161177057829003601f168201915b505050505081526020016002820154815260200160038201548152602001600482015481526020016005820154815260200160068201548152602001600782015481526020016008820154815260200160098201548152602001600a820160009054906101000a900460ff16600181111561180457fe5b600181111561180f57fe5b8152602001600b8201548152602001600c8201548152602001600d8201548152602001600e820160009054906101000a900473ffffffffffffffffffffffffffffffffffffffff1673ffffffffffffffffffffffffffffffffffffffff1673ffffffffffffffffffffffffffffffffffffffff168152602001600f8201548152505090508060e0015191505090565b6000806000806118ac6154de565b601f60008773ffffffffffffffffffffffffffffffffffffffff1673ffffffffffffffffffffffffffffffffffffffff1681526020019081526020016000206080604051908101604052908160008201548152602001600182015481526020016002820160009054906101000a900473ffffffffffffffffffffffffffffffffffffffff1673ffffffffffffffffffffffffffffffffffffffff1673ffffffffffffffffffffffffffffffffffffffff1681526020016002820160149054906101000a900460ff16151515158152505090508060200151945080600001519350602160008773ffffffffffffffffffffffffffffffffffffffff1673ffffffffffffffffffffffffffffffffffffffff168152602001908152602001600020549250602060008773ffffffffffffffffffffffffffffffffffffffff1673ffffffffffffffffffffffffffffffffffffffff168152602001908152602001600020549150848484849450945094509450509193509193565b6000600660009054906101000a900460ff16905090565b6000602060008373ffffffffffffffffffffffffffffffffffffffff1673ffffffffffffffffffffffffffffffffffffffff168152602001908152602001600020549050919050565b6000611b1f3384611b1a85600160003373ffffffffffffffffffffffffffffffffffffffff1673ffffffffffffffffffffffffffffffffffffffff16815260200190815260200160002060008973ffffffffffffffffffffffffffffffffffffffff1673ffffffffffffffffffffffffffffffffffffffff1681526020019081526020016000205461426690919063ffffffff16565b61406b565b6001905092915050565b6000600b60009054906101000a900473ffffffffffffffffffffffffffffffffffffffff1673ffffffffffffffffffffffffffffffffffffffff163373ffffffffffffffffffffffffffffffffffffffff16141515611bd3576040517f08c379a00000000000000000000000000000000000000000000000000000000081526004018080602001828103825260228152602001806155686022913960400191505060405180910390fd5b3373ffffffffffffffffffffffffffffffffffffffff16600b60009054906101000a900473ffffffffffffffffffffffffffffffffffffffff1673ffffffffffffffffffffffffffffffffffffffff161415611e8057611c3161539e565b600e610200604051908101604052908160008201548152602001600182018054600181600116156101000203166002900480601f016020809104026020016040519081016040528092919081815260200182805460018160011615610100020316600290048015611ce35780601f10611cb857610100808354040283529160200191611ce3565b820191906000526020600020905b815481529060010190602001808311611cc657829003601f168201915b505050505081526020016002820154815260200160038201548152602001600482015481526020016005820154815260200160068201548152602001600782015481526020016008820154815260200160098201548152602001600a820160009054906101000a900460ff166001811115611d5a57fe5b6001811115611d6557fe5b8152602001600b8201548152602001600c8201548152602001600d8201548152602001600e820160009054906101000a900473ffffffffffffffffffffffffffffffffffffffff1673ffffffffffffffffffffffffffffffffffffffff1673ffffffffffffffffffffffffffffffffffffffff168152602001600f82015481525050905060008161016001511115611e7e57600b60009054906101000a900473ffffffffffffffffffffffffffffffffffffffff1673ffffffffffffffffffffffffffffffffffffffff166108fc8261016001519081150290604051600060405180830381858888f19350505050158015611e64573d6000803e3d6000fd5b503373ffffffffffffffffffffffffffffffffffffffff16ff5b505b6000905090565b60008060008373ffffffffffffffffffffffffffffffffffffffff1673ffffffffffffffffffffffffffffffffffffffff168152602001908152602001600020549050919050565b6000600360008373ffffffffffffffffffffffffffffffffffffffff1673ffffffffffffffffffffffffffffffffffffffff16815260200190815260200160002060009054906101000a900460ff169050919050565b60006060600080600080600080600080600080600080611f4361539e565b600e610200604051908101604052908160008201548152602001600182018054600181600116156101000203166002900480601f016020809104026020016040519081016040528092919081815260200182805460018160011615610100020316600290048015611ff55780601f10611fca57610100808354040283529160200191611ff5565b820191906000526020600020905b815481529060010190602001808311611fd857829003601f168201915b505050505081526020016002820154815260200160038201548152602001600482015481526020016005820154815260200160068201548152602001600782015481526020016008820154815260200160098201548152602001600a820160009054906101000a900460ff16600181111561206c57fe5b600181111561207757fe5b8152602001600b8201548152602001600c8201548152602001600d8201548152602001600e820160009054906101000a900473ffffffffffffffffffffffffffffffffffffffff1673ffffffffffffffffffffffffffffffffffffffff1673ffffffffffffffffffffffffffffffffffffffff168152602001600f82015481525050905080600001519e5080602001519d5080604001519c5080606001519b5080608001519a508060a0015199508060e001519850806101200151975080610140015196508061016001519550806101a0015193508061018001519450806101c001519250806101e0015191508e8e8e8e8e8e8e8e8e8e8e8e8e8e9e509e509e509e509e509e509e509e509e509e509e509e509e509e5050909192939495969798999a9b9c9d565b6000600b60009054906101000a900473ffffffffffffffffffffffffffffffffffffffff1673ffffffffffffffffffffffffffffffffffffffff163373ffffffffffffffffffffffffffffffffffffffff16141515612249576040517f08c379a00000000000000000000000000000000000000000000000000000000081526004018080602001828103825260228152602001806155686022913960400191505060405180910390fd5b3373ffffffffffffffffffffffffffffffffffffffff16600b60009054906101000a900473ffffffffffffffffffffffffffffffffffffffff1673ffffffffffffffffffffffffffffffffffffffff1614151561230e576040517f08c379a00000000000000000000000000000000000000000000000000000000081526004018080602001828103825260128152602001807f4d757374204f776e65722045786563757465000000000000000000000000000081525060200191505060405180910390fd5b600042905061231b61539e565b600e610200604051908101604052908160008201548152602001600182018054600181600116156101000203166002900480601f0160208091040260200160405190810160405280929190818152602001828054600181600116156101000203166002900480156123cd5780601f106123a2576101008083540402835291602001916123cd565b820191906000526020600020905b8154815290600101906020018083116123b057829003601f168201915b505050505081526020016002820154815260200160038201548152602001600482015481526020016005820154815260200160068201548152602001600782015481526020016008820154815260200160098201548152602001600a820160009054906101000a900460ff16600181111561244457fe5b600181111561244f57fe5b8152602001600b8201548152602001600c8201548152602001600d8201548152602001600e820160009054906101000a900473ffffffffffffffffffffffffffffffffffffffff1673ffffffffffffffffffffffffffffffffffffffff1673ffffffffffffffffffffffffffffffffffffffff168152602001600f820154815250509050818160a001511115156124eb576001925050506124f2565b6000925050505b90565b6000600b60009054906101000a900473ffffffffffffffffffffffffffffffffffffffff16905090565b606060058054600181600116156101000203166002900480601f0160208091040260200160405190810160405280929190818152602001828054600181600116156101000203166002900480156125b75780601f1061258c576101008083540402835291602001916125b7565b820191906000526020600020905b81548152906001019060200180831161259a57829003601f168201915b5050505050905090565b60006125cc82614793565b1515612640576040517f08c379a00000000000000000000000000000000000000000000000000000000081526004018080602001828103825260148152602001807f7265636f6d6d656e645f75736572204572726f7200000000000000000000000081525060200191505060405180910390fd5b61264861539e565b600e610200604051908101604052908160008201548152602001600182018054600181600116156101000203166002900480601f0160208091040260200160405190810160405280929190818152602001828054600181600116156101000203166002900480156126fa5780601f106126cf576101008083540402835291602001916126fa565b820191906000526020600020905b8154815290600101906020018083116126dd57829003601f168201915b505050505081526020016002820154815260200160038201548152602001600482015481526020016005820154815260200160068201548152602001600782015481526020016008820154815260200160098201548152602001600a820160009054906101000a900460ff16600181111561277157fe5b600181111561277c57fe5b8152602001600b8201548152602001600c8201548152602001600d8201548152602001600e820160009054906101000a900473ffffffffffffffffffffffffffffffffffffffff1673ffffffffffffffffffffffffffffffffffffffff1673ffffffffffffffffffffffffffffffffffffffff168152602001600f820154815250509050600081600001511415151561287d576040517f08c379a000000000000000000000000000000000000000000000000000000000815260040180806020018281038252600e8152602001807f67616d65206e6f7420657869737400000000000000000000000000000000000081525060200191505060405180910390fd5b6000349050600033905060008360e0015190506000846101a00151905060008114156128a857600190505b6128b181614899565b9050600060018111156128c057fe5b85610140015160018111156128d157fe5b141515612946576040517f08c379a00000000000000000000000000000000000000000000000000000000081526004018080602001828103825260118152602001807f546869732047616d65204e6f7420496e6700000000000000000000000000000081525060200191505060405180910390fd5b428560a001511115156129c1576040517f08c379a000000000000000000000000000000000000000000000000000000000815260040180806020018281038252600c8152602001807f47616d65204973204f766572000000000000000000000000000000000000000081525060200191505060405180910390fd5b838211151515612a39576040517f08c379a00000000000000000000000000000000000000000000000000000000081526004018080602001828103825260208152602001807f546869732047616d6520427579205072696365206973206e6f74206c696d697481525060200191505060405180910390fd5b6000612a636064612a55600a5488614ab190919063ffffffff16565b614b4d90919063ffffffff16565b90506000612a8f6064612a8160095489614ab190919063ffffffff16565b614b4d90919063ffffffff16565b90506000612abb6064612aad600c548a614ab190919063ffffffff16565b614b4d90919063ffffffff16565b90506000612ae76064612ad9600d548b614ab190919063ffffffff16565b614b4d90919063ffffffff16565b90506000600b60009054906101000a900473ffffffffffffffffffffffffffffffffffffffff169050612b186154de565b601f60008a73ffffffffffffffffffffffffffffffffffffffff1673ffffffffffffffffffffffffffffffffffffffff1681526020019081526020016000206080604051908101604052908160008201548152602001600182015481526020016002820160009054906101000a900473ffffffffffffffffffffffffffffffffffffffff1673ffffffffffffffffffffffffffffffffffffffff1673ffffffffffffffffffffffffffffffffffffffff1681526020016002820160149054906101000a900460ff16151515158152505090508c91508c816040019073ffffffffffffffffffffffffffffffffffffffff16908173ffffffffffffffffffffffffffffffffffffffff168152505080606001518015612c675750600073ffffffffffffffffffffffffffffffffffffffff16816040015173ffffffffffffffffffffffffffffffffffffffff1614155b15612c7457806040015191505b60008090505b601e80549050811015612d16576000601e82815481101515612c9857fe5b9060005260206000200160009054906101000a900473ffffffffffffffffffffffffffffffffffffffff169050602260008273ffffffffffffffffffffffffffffffffffffffff1673ffffffffffffffffffffffffffffffffffffffff16815260200190815260200160002060009055508080600101915050612c7a565b50600b60009054906101000a900473ffffffffffffffffffffffffffffffffffffffff1673ffffffffffffffffffffffffffffffffffffffff166108fc869081150290604051600060405180830381858888f19350505050158015612d7f573d6000803e3d6000fd5b507fc0d91c82e97814aa565f0d03c18f64ee424f76125f42d94ddfceff120b4f8995600b60009054906101000a900473ffffffffffffffffffffffffffffffffffffffff1686604051808373ffffffffffffffffffffffffffffffffffffffff1673ffffffffffffffffffffffffffffffffffffffff16815260200182815260200180602001828103825260158152602001807fe58f91e694bee5b9b3e58fb0e6898be7bbade8b4b90000000000000000000000815250602001935050505060405180910390a18173ffffffffffffffffffffffffffffffffffffffff166108fc879081150290604051600060405180830381858888f19350505050158015612e8c573d6000803e3d6000fd5b50612edf86602160008573ffffffffffffffffffffffffffffffffffffffff1673ffffffffffffffffffffffffffffffffffffffff1681526020019081526020016000205461426690919063ffffffff16565b602160008473ffffffffffffffffffffffffffffffffffffffff1673ffffffffffffffffffffffffffffffffffffffff168152602001908152602001600020819055507f4374886bfaca751b7f029933ffc2bad8439bbbb974547c4d1bf00d230c04ca068287604051808373ffffffffffffffffffffffffffffffffffffffff1673ffffffffffffffffffffffffffffffffffffffff16815260200182815260200180602001828103825260128152602001807fe58f91e694bee68ea8e88d90e5a596e58ab10000000000000000000000000000815250602001935050505060405180910390a1600b60009054906101000a900473ffffffffffffffffffffffffffffffffffffffff1673ffffffffffffffffffffffffffffffffffffffff168273ffffffffffffffffffffffffffffffffffffffff16141561315057600b60009054906101000a900473ffffffffffffffffffffffffffffffffffffffff1673ffffffffffffffffffffffffffffffffffffffff166108fc849081150290604051600060405180830381858888f19350505050158015613084573d6000803e3d6000fd5b507f6b4d7266512708fa68ea31c0b0828f3fca58f0fabf63d5301e3b79dde007fdc1600b60009054906101000a900473ffffffffffffffffffffffffffffffffffffffff1684604051808373ffffffffffffffffffffffffffffffffffffffff1673ffffffffffffffffffffffffffffffffffffffff168152602001828152602001806020018281038252600c8152602001807fe8bf94e588a9e5b9b3e58fb00000000000000000000000000000000000000000815250602001935050505060405180910390a161323c565b8873ffffffffffffffffffffffffffffffffffffffff166108fc849081150290604051600060405180830381858888f19350505050158015613196573d6000803e3d6000fd5b507f6b4d7266512708fa68ea31c0b0828f3fca58f0fabf63d5301e3b79dde007fdc18984604051808373ffffffffffffffffffffffffffffffffffffffff1673ffffffffffffffffffffffffffffffffffffffff168152602001828152602001806020018281038252600f8152602001807fe8bf94e588a9e7bb99e794a8e688b70000000000000000000000000000000000815250602001935050505060405180910390a15b600080905060008090505b601e805490508110156133cb576000601e8281548110151561326557fe5b9060005260206000200160009054906101000a900473ffffffffffffffffffffffffffffffffffffffff1690506000602060008373ffffffffffffffffffffffffffffffffffffffff1673ffffffffffffffffffffffffffffffffffffffff16815260200190815260200160002054905060008090506132e483614be0565b156133115761330e8c613300848c614ab190919063ffffffff16565b614b4d90919063ffffffff16565b90505b613324818661426690919063ffffffff16565b945061337881602260008673ffffffffffffffffffffffffffffffffffffffff1673ffffffffffffffffffffffffffffffffffffffff1681526020019081526020016000205461426690919063ffffffff16565b602260008573ffffffffffffffffffffffffffffffffffffffff1673ffffffffffffffffffffffffffffffffffffffff168152602001908152602001600020819055505050508080600101915050613247565b5060006133e1888d61470890919063ffffffff16565b90506133f6878261470890919063ffffffff16565b905061340b828261470890919063ffffffff16565b9050613420858261470890919063ffffffff16565b905082606001511561353b57601f60008c73ffffffffffffffffffffffffffffffffffffffff1673ffffffffffffffffffffffffffffffffffffffff1681526020019081526020016000206080604051908101604052908160008201548152602001600182015481526020016002820160009054906101000a900473ffffffffffffffffffffffffffffffffffffffff1673ffffffffffffffffffffffffffffffffffffffff1673ffffffffffffffffffffffffffffffffffffffff1681526020016002820160149054906101000a900460ff161515151581525050925083836040019073ffffffffffffffffffffffffffffffffffffffff16908173ffffffffffffffffffffffffffffffffffffffff16815250506135e1565b60806040519081016040528060008152602001600081526020018573ffffffffffffffffffffffffffffffffffffffff168152602001600115158152509250601e8b90806001815401808255809150509060018203906000526020600020016000909192909190916101000a81548173ffffffffffffffffffffffffffffffffffffffff021916908373ffffffffffffffffffffffffffffffffffffffff160217905550505b6135f88c846020015161426690919063ffffffff16565b83602001818152505082601f60008d73ffffffffffffffffffffffffffffffffffffffff1673ffffffffffffffffffffffffffffffffffffffff168152602001908152602001600020600082015181600001556020820151816001015560408201518160020160006101000a81548173ffffffffffffffffffffffffffffffffffffffff021916908373ffffffffffffffffffffffffffffffffffffffff16021790555060608201518160020160146101000a81548160ff02191690831515021790555090505060008090505b601e80549050811015613a60576000601e828154811015156136e357fe5b9060005260206000200160009054906101000a900473ffffffffffffffffffffffffffffffffffffffff1690506000602260008373ffffffffffffffffffffffffffffffffffffffff1673ffffffffffffffffffffffffffffffffffffffff1681526020019081526020016000205490506000811115613a51576137656154de565b601f60008473ffffffffffffffffffffffffffffffffffffffff1673ffffffffffffffffffffffffffffffffffffffff1681526020019081526020016000206080604051908101604052908160008201548152602001600182015481526020016002820160009054906101000a900473ffffffffffffffffffffffffffffffffffffffff1673ffffffffffffffffffffffffffffffffffffffff1673ffffffffffffffffffffffffffffffffffffffff1681526020016002820160149054906101000a900460ff16151515158152505090508060600151156138665761385882826000015161426690919063ffffffff16565b8160000181815250506138a6565b60806040519081016040528083815260200160008152602001600073ffffffffffffffffffffffffffffffffffffffff1681526020016001151581525090505b80601f60008573ffffffffffffffffffffffffffffffffffffffff1673ffffffffffffffffffffffffffffffffffffffff168152602001908152602001600020600082015181600001556020820151816001015560408201518160020160006101000a81548173ffffffffffffffffffffffffffffffffffffffff021916908373ffffffffffffffffffffffffffffffffffffffff16021790555060608201518160020160146101000a81548160ff0219169083151502179055509050508273ffffffffffffffffffffffffffffffffffffffff166108fc839081150290604051600060405180830381858888f193505050501580156139aa573d6000803e3d6000fd5b507fde3810754a10190424b293c24463eeaa95fa7548782a204075a6acb2170e40e48383604051808373ffffffffffffffffffffffffffffffffffffffff1673ffffffffffffffffffffffffffffffffffffffff16815260200182815260200180602001828103825260128152602001807fe58f91e98081e58886e7baa2e5a596e58ab10000000000000000000000000000815250602001935050505060405180910390a1505b505080806001019150506136c5565b5060008090505b601e80549050811015613b03576000601e82815481101515613a8557fe5b9060005260206000200160009054906101000a900473ffffffffffffffffffffffffffffffffffffffff169050602260008273ffffffffffffffffffffffffffffffffffffffff1673ffffffffffffffffffffffffffffffffffffffff16815260200190815260200160002060009055508080600101915050613a67565b50613b576001602060008e73ffffffffffffffffffffffffffffffffffffffff1673ffffffffffffffffffffffffffffffffffffffff1681526020019081526020016000205461426690919063ffffffff16565b602060008d73ffffffffffffffffffffffffffffffffffffffff1673ffffffffffffffffffffffffffffffffffffffff16815260200190815260200160002081905550613ba58b8284614d88565b507fb6668bab6642a507a81c08f30893aaa47e0c29df8e88ad6b9c19ffd3a2296cf38b8d42604051808473ffffffffffffffffffffffffffffffffffffffff1673ffffffffffffffffffffffffffffffffffffffff16815260200183815260200182815260200180602001828103825260068152602001807fe8b4ade4b9b0000000000000000000000000000000000000000000000000000081525060200194505050505060405180910390a1613c90600b60009054906101000a900473ffffffffffffffffffffffffffffffffffffffff168c613c81611a24565b60ff16600a0a602354026142f0565b60019d5050505050505050505050505050919050565b6000613d413384613d3c85600160003373ffffffffffffffffffffffffffffffffffffffff1673ffffffffffffffffffffffffffffffffffffffff16815260200190815260200160002060008973ffffffffffffffffffffffffffffffffffffffff1673ffffffffffffffffffffffffffffffffffffffff1681526020019081526020016000205461470890919063ffffffff16565b61406b565b6001905092915050565b6000613d583384846142f0565b6001905092915050565b600042905090565b6000600b60009054906101000a900473ffffffffffffffffffffffffffffffffffffffff1673ffffffffffffffffffffffffffffffffffffffff163373ffffffffffffffffffffffffffffffffffffffff16141515613e14576040517f08c379a00000000000000000000000000000000000000000000000000000000081526004018080602001828103825260228152602001806155686022913960400191505060405180910390fd5b613e4f600b60009054906101000a900473ffffffffffffffffffffffffffffffffffffffff16613e42611a24565b60ff16600a0a840261510f565b60019050919050565b6000600160008473ffffffffffffffffffffffffffffffffffffffff1673ffffffffffffffffffffffffffffffffffffffff16815260200190815260200160002060008373ffffffffffffffffffffffffffffffffffffffff1673ffffffffffffffffffffffffffffffffffffffff16815260200190815260200160002054905092915050565b6000600b60009054906101000a900473ffffffffffffffffffffffffffffffffffffffff1673ffffffffffffffffffffffffffffffffffffffff163373ffffffffffffffffffffffffffffffffffffffff16141515613f89576040517f08c379a00000000000000000000000000000000000000000000000000000000081526004018080602001828103825260228152602001806155686022913960400191505060405180910390fd5b8273ffffffffffffffffffffffffffffffffffffffff16600b60009054906101000a900473ffffffffffffffffffffffffffffffffffffffff1673ffffffffffffffffffffffffffffffffffffffff161415151561404f576040517f08c379a00000000000000000000000000000000000000000000000000000000081526004018080602001828103825260148152602001807f63616e206e6f7420667265657a65206f776e657200000000000000000000000081525060200191505060405180910390fd5b61405983836152cc565b905092915050565b6000600754905090565b600073ffffffffffffffffffffffffffffffffffffffff168373ffffffffffffffffffffffffffffffffffffffff16141515156140f3576040517f08c379a00000000000000000000000000000000000000000000000000000000081526004018080602001828103825260248152602001806155f26024913960400191505060405180910390fd5b600073ffffffffffffffffffffffffffffffffffffffff168273ffffffffffffffffffffffffffffffffffffffff161415151561417b576040517f08c379a000000000000000000000000000000000000000000000000000000000815260040180806020018281038252602281526020018061558a6022913960400191505060405180910390fd5b80600160008573ffffffffffffffffffffffffffffffffffffffff1673ffffffffffffffffffffffffffffffffffffffff16815260200190815260200160002060008473ffffffffffffffffffffffffffffffffffffffff1673ffffffffffffffffffffffffffffffffffffffff168152602001908152602001600020819055508173ffffffffffffffffffffffffffffffffffffffff168373ffffffffffffffffffffffffffffffffffffffff167f8c5be1e5ebec7d5bd14f71427d1e84f3dd0314c0f7b2291e5b200ac8c7c3b925836040518082815260200191505060405180910390a3505050565b60008082840190508381101515156142e6576040517f08c379a000000000000000000000000000000000000000000000000000000000815260040180806020018281038252601b8152602001807f536166654d6174683a206164646974696f6e206f766572666c6f77000000000081525060200191505060405180910390fd5b8091505092915050565b600360008473ffffffffffffffffffffffffffffffffffffffff1673ffffffffffffffffffffffffffffffffffffffff16815260200190815260200160002060009054906101000a900460ff161515156143b2576040517f08c379a00000000000000000000000000000000000000000000000000000000081526004018080602001828103825260178152602001807f74686973206163636f756e74206861732066726f7a656e00000000000000000081525060200191505060405180910390fd5b600073ffffffffffffffffffffffffffffffffffffffff168373ffffffffffffffffffffffffffffffffffffffff161415151561443a576040517f08c379a00000000000000000000000000000000000000000000000000000000081526004018080602001828103825260258152602001806155cd6025913960400191505060405180910390fd5b600073ffffffffffffffffffffffffffffffffffffffff168273ffffffffffffffffffffffffffffffffffffffff16141515156144c2576040517f08c379a00000000000000000000000000000000000000000000000000000000081526004018080602001828103825260238152602001806155456023913960400191505060405180910390fd5b806000808573ffffffffffffffffffffffffffffffffffffffff1673ffffffffffffffffffffffffffffffffffffffff1681526020019081526020016000205410151515614578576040517f08c379a00000000000000000000000000000000000000000000000000000000081526004018080602001828103825260188152602001807f73656e64657220616d6f756e74204e6f7420656e6f756768000000000000000081525060200191505060405180910390fd5b6145c9816000808673ffffffffffffffffffffffffffffffffffffffff1673ffffffffffffffffffffffffffffffffffffffff1681526020019081526020016000205461470890919063ffffffff16565b6000808573ffffffffffffffffffffffffffffffffffffffff1673ffffffffffffffffffffffffffffffffffffffff1681526020019081526020016000208190555061465c816000808573ffffffffffffffffffffffffffffffffffffffff1673ffffffffffffffffffffffffffffffffffffffff1681526020019081526020016000205461426690919063ffffffff16565b6000808473ffffffffffffffffffffffffffffffffffffffff1673ffffffffffffffffffffffffffffffffffffffff168152602001908152602001600020819055508173ffffffffffffffffffffffffffffffffffffffff168373ffffffffffffffffffffffffffffffffffffffff167fddf252ad1be2c89b69c2b068fc378daa952ba7f163c4a11628f55a4df523b3ef836040518082815260200191505060405180910390a3505050565b6000828211151515614782576040517f08c379a000000000000000000000000000000000000000000000000000000000815260040180806020018281038252601e8152602001807f536166654d6174683a207375627472616374696f6e206f766572666c6f77000081525060200191505060405180910390fd5b600082840390508091505092915050565b60008073ffffffffffffffffffffffffffffffffffffffff168273ffffffffffffffffffffffffffffffffffffffff1614156147d25760009050614894565b600b60009054906101000a900473ffffffffffffffffffffffffffffffffffffffff1673ffffffffffffffffffffffffffffffffffffffff168273ffffffffffffffffffffffffffffffffffffffff1614156148315760019050614894565b601f60008373ffffffffffffffffffffffffffffffffffffffff1673ffffffffffffffffffffffffffffffffffffffff16815260200190815260200160002060020160149054906101000a900460ff161561488f5760019050614894565b600090505b919050565b600081905060006148b9600754600a0a6003614ab190919063ffffffff16565b905060008090505b601e80549050811015614aa7576000601e828154811015156148df57fe5b9060005260206000200160009054906101000a900473ffffffffffffffffffffffffffffffffffffffff1690506149146154de565b601f60008373ffffffffffffffffffffffffffffffffffffffff1673ffffffffffffffffffffffffffffffffffffffff1681526020019081526020016000206080604051908101604052908160008201548152602001600182015481526020016002820160009054906101000a900473ffffffffffffffffffffffffffffffffffffffff1673ffffffffffffffffffffffffffffffffffffffff1673ffffffffffffffffffffffffffffffffffffffff1681526020016002820160149054906101000a900460ff16151515158152505090506000602060008473ffffffffffffffffffffffffffffffffffffffff1673ffffffffffffffffffffffffffffffffffffffff16815260200190815260200160002054905081606001518015614a3b5750600081115b15614a97576000614a74600754600a0a614a6685602001518660000151614b4d90919063ffffffff16565b614ab190919063ffffffff16565b90508581101515614a9557614a92828961470890919063ffffffff16565b96505b505b50505080806001019150506148c1565b5081915050919050565b600080831415614ac45760009050614b47565b6000821415614ad65760009050614b47565b60008284029050828482811515614ae957fe5b04141515614b42576040517f08c379a00000000000000000000000000000000000000000000000000000000081526004018080602001828103825260218152602001806155ac6021913960400191505060405180910390fd5b809150505b92915050565b60008082111515614bc6576040517f08c379a000000000000000000000000000000000000000000000000000000000815260040180806020018281038252601a8152602001807f536166654d6174683a206469766973696f6e206279207a65726f00000000000081525060200191505060405180910390fd5b60008284811515614bd357fe5b0490508091505092915050565b6000600190506000614c01600754600a0a6003614ab190919063ffffffff16565b9050614c0b6154de565b601f60008573ffffffffffffffffffffffffffffffffffffffff1673ffffffffffffffffffffffffffffffffffffffff1681526020019081526020016000206080604051908101604052908160008201548152602001600182015481526020016002820160009054906101000a900473ffffffffffffffffffffffffffffffffffffffff1673ffffffffffffffffffffffffffffffffffffffff1673ffffffffffffffffffffffffffffffffffffffff1681526020016002820160149054906101000a900460ff16151515158152505090506000602060008673ffffffffffffffffffffffffffffffffffffffff1673ffffffffffffffffffffffffffffffffffffffff16815260200190815260200160002054905081606001518015614d325750600081115b15614d7d576000614d6b600754600a0a614d5d85602001518660000151614b4d90919063ffffffff16565b614ab190919063ffffffff16565b90508381101515614d7b57600094505b505b839350505050919050565b600080429050614d9661539e565b600e610200604051908101604052908160008201548152602001600182018054600181600116156101000203166002900480601f016020809104026020016040519081016040528092919081815260200182805460018160011615610100020316600290048015614e485780601f10614e1d57610100808354040283529160200191614e48565b820191906000526020600020905b815481529060010190602001808311614e2b57829003601f168201915b505050505081526020016002820154815260200160038201548152602001600482015481526020016005820154815260200160068201548152602001600782015481526020016008820154815260200160098201548152602001600a820160009054906101000a900460ff166001811115614ebf57fe5b6001811115614eca57fe5b8152602001600b8201548152602001600c8201548152602001600d8201548152602001600e820160009054906101000a900473ffffffffffffffffffffffffffffffffffffffff1673ffffffffffffffffffffffffffffffffffffffff1673ffffffffffffffffffffffffffffffffffffffff168152602001600f82015481525050905085600e800160006101000a81548173ffffffffffffffffffffffffffffffffffffffff021916908373ffffffffffffffffffffffffffffffffffffffff160217905550614fa98582610160015161426690919063ffffffff16565b600e600b01819055506000614fcd6001836101a0015161426690919063ffffffff16565b905080600e600d018190555082600e60040181905550614ffa82606001518461426690919063ffffffff16565b600e60050181905550816101e0015181141561507657600061502b6002846101200151614b4d90919063ffffffff16565b905080836101200181815250506150516002846101e00151614ab190919063ffffffff16565b836101e001818152505080600e60090181905550826101e00151600e600f0181905550505b60006150a8606461509a600854600a0a866101200151614b4d90919063ffffffff16565b61426690919063ffffffff16565b905060008360e0015190506150d960646150cb8484614ab190919063ffffffff16565b614b4d90919063ffffffff16565b600e600701819055506150fa87600e600c015461426690919063ffffffff16565b600e600c018190555050505050509392505050565b600073ffffffffffffffffffffffffffffffffffffffff168273ffffffffffffffffffffffffffffffffffffffff16141515156151b4576040517f08c379a000000000000000000000000000000000000000000000000000000000815260040180806020018281038252601f8152602001807f45524332303a206d696e7420746f20746865207a65726f20616464726573730081525060200191505060405180910390fd5b6151c98160025461426690919063ffffffff16565b600281905550615220816000808573ffffffffffffffffffffffffffffffffffffffff1673ffffffffffffffffffffffffffffffffffffffff1681526020019081526020016000205461426690919063ffffffff16565b6000808473ffffffffffffffffffffffffffffffffffffffff1673ffffffffffffffffffffffffffffffffffffffff168152602001908152602001600020819055508173ffffffffffffffffffffffffffffffffffffffff16600073ffffffffffffffffffffffffffffffffffffffff167fddf252ad1be2c89b69c2b068fc378daa952ba7f163c4a11628f55a4df523b3ef836040518082815260200191505060405180910390a35050565b600081600360008573ffffffffffffffffffffffffffffffffffffffff1673ffffffffffffffffffffffffffffffffffffffff16815260200190815260200160002060006101000a81548160ff0219169083151502179055507f48335238b4855f35377ed80f164e8c6f3c366e54ac00b96a6402d4a9814a03a58383604051808373ffffffffffffffffffffffffffffffffffffffff1673ffffffffffffffffffffffffffffffffffffffff168152602001821515151581526020019250505060405180910390a16001905092915050565b6102006040519081016040528060008152602001606081526020016000815260200160008152602001600081526020016000815260200160008152602001600081526020016000815260200160008152602001600060018111156153fe57fe5b8152602001600081526020016000815260200160008152602001600073ffffffffffffffffffffffffffffffffffffffff168152602001600081525090565b508054600082559060005260206000209081019061545b919061551f565b50565b828054600181600116156101000203166002900490600052602060002090601f016020900481019282601f1061549f57805160ff19168380011785556154cd565b828001600101855582156154cd579182015b828111156154cc5782518255916020019190600101906154b1565b5b5090506154da919061551f565b5090565b6080604051908101604052806000815260200160008152602001600073ffffffffffffffffffffffffffffffffffffffff1681526020016000151581525090565b61554191905b8082111561553d576000816000905550600101615525565b5090565b9056fe45524332303a207472616e7366657220746f20746865207a65726f20616464726573734f6e6c79206f776e65722063616e2063616c6c20746869732066756e6374696f6e2e45524332303a20617070726f766520746f20746865207a65726f2061646472657373536166654d6174683a206d756c7469706c69636174696f6e206f766572666c6f7745524332303a207472616e736665722066726f6d20746865207a65726f206164647265737345524332303a20617070726f76652066726f6d20746865207a65726f2061646472657373a165627a7a72305820b36a9b18fdda5e5afd038a345172048ad3022ae44744d618e2f12309168b6dce0029536166654d6174683a206d756c7469706c69636174696f6e206f766572666c6f77",
  "source": "pragma solidity ^0.5.4;\r\n\r\nimport \"./SafeMath.sol\";\r\nimport \"./Entitys.sol\";\r\n\r\nimport \"./ERC20.sol\";\r\nimport \"./ERC20Detailed.sol\";\r\n\r\n/***\r\n    \r\n */\r\ncontract LeeLa  is ERC20, ERC20Detailed{\r\n    modifier onlyOwner {\r\n        require(msg.sender == _owner, \"Only owner can call this function.\");\r\n        _;\r\n    }\r\n\r\n    using SafeMath for uint256;\r\n\r\n    /** */\r\n    //assert(1 wei == 1);\r\n    //assert(1 szabo == 1e12);\r\n    //assert(1 finney == 1e15);\r\n    //assert(1 ether == 1e18);\r\n    uint256 private _trx_decimals = 6;\r\n    uint256 private _price_upper_decimals = 18;\r\n\r\n    /** */\r\n    uint256 private _fee_rate = 10;\r\n    /** */\r\n    uint256 private _recommend_rate = 10;\r\n    address private _owner;\r\n\r\n    /** */\r\n    uint256 private _bonus_rate = 45;\r\n\r\n    /* */\r\n    uint256 private _feeback_rate = 5;\r\n    //10% 10% 5% 30% 45%\r\n    /**\r\n        \r\n     */\r\n    Entitys.GameStruct private current_game;\r\n\r\n    //\r\n    address[] private game_buy_users;\r\n\r\n    /***\r\n    ->->\r\n    */\r\n    mapping(address => Entitys.UserBenefitAndInvestment)\r\n        private game_investment_benefit;\r\n    /**\r\n    ->->\r\n     */\r\n    mapping(address => uint256) private game_user_buy_count;\r\n\r\n    /**\r\n    ->\r\n     */\r\n    mapping(address => uint256) private user_recommend_value;\r\n\r\n    //\r\n    mapping(address => uint256) private user_credit_log;\r\n\r\n    //MTB\r\n    uint256 private buy_airdrop_mtb_count=uint256(1000000);\r\n\r\n    constructor (\r\n        uint256 _game_id,\r\n        string memory _name,\r\n        uint256 _game_times,\r\n        uint256 _price,\r\n        uint256 _price_upper_rate\r\n    ) public ERC20Detailed(\"LIRA\", \"LIRA\", uint8(_trx_decimals)){\r\n        _owner = msg.sender;\r\n        uint256 temp_now = now;\r\n        uint256 _last_buy_time = temp_now;\r\n        uint256 _over_time = temp_now.add(_game_times);\r\n        uint256 _buy_price = _price * (10**uint256(_trx_decimals)); //1^6\r\n        uint256 price_upper_rate =\r\n            _price_upper_rate.mul(10**_price_upper_decimals); //1^18\r\n        uint256 _next_change_rate_count = 70;\r\n        current_game = Entitys.GameStruct({\r\n            game_id: _game_id,\r\n            name: _name,\r\n            begin_time: temp_now,\r\n            game_times: _game_times,\r\n            last_buy_time: _last_buy_time,\r\n            over_time: _over_time,\r\n            base_prce: _buy_price,\r\n            price: _buy_price,\r\n            base_price_upper_rate: price_upper_rate,\r\n            price_upper_rate: price_upper_rate,\r\n            status: Entitys.GameStatus.Ing,\r\n            prize_value: 0,\r\n            bonus_value: 0,\r\n            buy_count: 0,\r\n            last_buy_user_address: _owner,\r\n            next_change_rate_count: _next_change_rate_count\r\n        });\r\n\r\n\r\n          _mint(msg.sender, 1_000_000_000_000 * (10 ** uint256(decimals())));\r\n    }\r\n\r\n    /**\r\n        \r\n        \r\n    */\r\n    function getNow() public view returns (uint256 nowvalue) {\r\n        return now;\r\n    }\r\n\r\n    /***\r\n     *  \r\n     * */\r\n    function getDecimals() public view returns (uint256) {\r\n        return _trx_decimals;\r\n    }\r\n\r\n    /***\r\n     *  \r\n     * */\r\n    function getOwner() public view returns (address) {\r\n        return _owner;\r\n    }\r\n\r\n    /**\r\n     * \r\n     */\r\n    function getCurrentRoundInfo()\r\n        public\r\n        view\r\n        returns (\r\n            uint256 game_id,\r\n            string memory name,\r\n            uint256 begin_time,\r\n            uint256 game_times,\r\n            uint256 last_buy_time,\r\n            uint256 over_time,\r\n            uint256 price,\r\n            uint256 price_upper_rate,\r\n            Entitys.GameStatus status,\r\n            uint256 prize_value,\r\n            uint256 bonus_value,\r\n            uint256 buy_count,\r\n            address last_buy_user_address,\r\n            uint256 next_change_rate_count\r\n        )\r\n    {\r\n        Entitys.GameStruct memory game = current_game;\r\n        game_id = game.game_id;\r\n        name = game.name;\r\n        begin_time = game.begin_time;\r\n        game_times = game.game_times;\r\n        last_buy_time = game.last_buy_time;\r\n        over_time = game.over_time;\r\n        price = game.price;\r\n        price_upper_rate = game.price_upper_rate;\r\n        status = game.status;\r\n        prize_value = game.prize_value;\r\n        buy_count = game.buy_count;\r\n        bonus_value = game.bonus_value;\r\n        last_buy_user_address = game.last_buy_user_address;\r\n        next_change_rate_count = game.next_change_rate_count;\r\n        return (\r\n            game_id,\r\n            name,\r\n            begin_time,\r\n            game_times,\r\n            last_buy_time,\r\n            over_time,\r\n            price,\r\n            price_upper_rate,\r\n            status,\r\n            prize_value,\r\n            bonus_value,\r\n            buy_count,\r\n            last_buy_user_address,\r\n            next_change_rate_count\r\n        );\r\n    }\r\n\r\n    function askprice() public view returns (uint256 price) {\r\n        Entitys.GameStruct memory game = current_game;\r\n        return game.price;\r\n    }\r\n\r\n    //\r\n    event SendRecommend(address bidder, uint256 amount, string event_msg);\r\n\r\n    //\r\n    event SendFeeBack(address bidder, uint256 amount, string event_msg);\r\n    //\r\n    event SendPlatformFee(address bidder, uint256 amount, string event_msg);\r\n    //\r\n    event CalcBonus(address bidder, uint256 amount, string event_msg);\r\n\r\n    //\r\n    event TransferAmount(address bidder, uint256 amount, string event_msg);\r\n\r\n    //\r\n    event BuyGameEvent(\r\n        address bidder,\r\n        uint256 amount,\r\n        uint256 buy_time,\r\n        string event_msg\r\n    );\r\n\r\n    function checkRecommend(address recommend_user)\r\n        private\r\n        view\r\n        returns (bool)\r\n    {\r\n        if (recommend_user == address(0)) {\r\n            return false;\r\n        }\r\n        if (recommend_user == _owner) {\r\n            return true;\r\n        }\r\n        if (game_investment_benefit[recommend_user].isValue) {\r\n            return true;\r\n        }\r\n        return false;\r\n    }\r\n\r\n    /**\r\n     *@recommend_user \r\n     * token\r\n     *1TRX           =\"TJBHq5um63GPdmmjhmSppuep69bygK7cJE====1000000\"\r\n     *0.1TRX         =\"TJBHq5um63GPdmmjhmSppuep69bygK7cJE====100000\"\r\n     *0.000001TRX    =\"TJBHq5um63GPdmmjhmSppuep69bygK7cJE====1\"\r\n     */\r\n    function buy_token(address recommend_user)\r\n        public\r\n        payable\r\n        returns (bool success)\r\n    {\r\n        require(checkRecommend(recommend_user), \"recommend_user Error\");\r\n        // grab time\r\n        //uint256 _now = now;\r\n        Entitys.GameStruct memory game = current_game;\r\n        require(game.game_id != uint256(0), \"game not exist\");\r\n        //1 TRX           =\"TJBHq5um63GPdmmjhmSppuep69bygK7cJE====1000000\"\r\n        //0.1 TRX         =\"TJBHq5um63GPdmmjhmSppuep69bygK7cJE====100000\"\r\n        //0.000001 TRX    =\"TJBHq5um63GPdmmjhmSppuep69bygK7cJE====1\"\r\n        uint256 amount = msg.value; //\r\n        address buyer = msg.sender; //\r\n        uint256 current_price = game.price; //\r\n        uint256 current_buy_count = game.buy_count; //\r\n        if (current_buy_count == uint256(0)) {\r\n            current_buy_count = 1;\r\n        }\r\n        //300%\r\n       current_buy_count=GetEffectiveBuyCount(current_buy_count);//\r\n\r\n        require(game.status == Entitys.GameStatus.Ing, \"This Game Not Ing\");\r\n        require(game.over_time > now, \"Game Is Over\");\r\n        //\r\n        require(current_price <= amount, \"This Game Buy Price is not limit\");\r\n\r\n        //\r\n        uint256 recommend_value = amount.mul(_recommend_rate).div(100);\r\n\r\n        //\r\n        uint256 platform_value = amount.mul(_fee_rate).div(100);\r\n        //\r\n        uint256 bonus_value = amount.mul(_bonus_rate).div(100);\r\n\r\n        //\r\n        uint256 fee_back_value = amount.mul(_feeback_rate).div(100);\r\n\r\n        //\r\n        address temp_recommend_user = _owner; //\r\n        //--/\r\n        Entitys.UserBenefitAndInvestment memory bi =\r\n            game_investment_benefit[buyer];\r\n\r\n        temp_recommend_user = recommend_user; //\r\n        bi.recommend_user_address = recommend_user; //\r\n\r\n        if (bi.isValue && bi.recommend_user_address != address(0)) {\r\n            temp_recommend_user = bi.recommend_user_address;\r\n        }\r\n\r\n        for (uint256 i = 0; i < game_buy_users.length; i++) {\r\n            address temp_user = game_buy_users[i];\r\n            delete user_credit_log[temp_user];\r\n        }\r\n        address(uint160(_owner)).transfer(platform_value); //\r\n        emit SendPlatformFee(_owner, platform_value, \"\");\r\n\r\n        address(uint160(temp_recommend_user)).transfer(recommend_value); //\r\n        user_recommend_value[temp_recommend_user] = user_recommend_value[\r\n            temp_recommend_user\r\n        ]\r\n            .add(recommend_value);\r\n\r\n        emit SendRecommend(\r\n            temp_recommend_user,\r\n            recommend_value,\r\n            \"\"\r\n        );\r\n        if (temp_recommend_user == _owner) {\r\n            //\r\n            address(uint160(_owner)).transfer(fee_back_value); //\r\n            emit SendFeeBack(_owner, fee_back_value, \"\");\r\n        } else {\r\n            //\r\n            address(uint160(buyer)).transfer(fee_back_value); //\r\n            emit SendFeeBack(buyer, fee_back_value, \"\");\r\n        }\r\n\r\n        uint256 used_bonus_value = uint256(0);\r\n\r\n        \r\n        // \r\n        for (uint256 i = 0; i < game_buy_users.length; i++) {\r\n            address temp_user = game_buy_users[i];\r\n            uint256 user_buy_count = game_user_buy_count[temp_user];\r\n            //=*/\r\n            uint256 temp_bonus_value =uint256(0);\r\n            //\r\n            if(CheckUserCanBonus(temp_user))\r\n            {\r\n               temp_bonus_value=bonus_value.mul(user_buy_count).div(current_buy_count);\r\n            }\r\n            //emit CalcBonus(temp_user,temp_bonus_value,\"\");\r\n            used_bonus_value = used_bonus_value.add(temp_bonus_value);\r\n            user_credit_log[temp_user] = user_credit_log[temp_user].add(\r\n                temp_bonus_value\r\n            );\r\n        }\r\n        //\r\n        //=----\r\n        uint256 temp_prize_value = amount.sub(recommend_value); //\r\n        temp_prize_value = temp_prize_value.sub(platform_value); //\r\n        temp_prize_value = temp_prize_value.sub(used_bonus_value); //\r\n        temp_prize_value = temp_prize_value.sub(fee_back_value); //\r\n\r\n        if (bi.isValue) {\r\n            bi = game_investment_benefit[buyer];\r\n            bi.recommend_user_address = temp_recommend_user;\r\n        } else {\r\n            //-\r\n            bi = Entitys.UserBenefitAndInvestment(\r\n                0,\r\n                0,\r\n                temp_recommend_user,\r\n                true\r\n            );\r\n            //\r\n            game_buy_users.push(buyer);\r\n        }\r\n        bi.touru = bi.touru.add(amount);\r\n        //\r\n        game_investment_benefit[buyer] = bi;\r\n        for (uint256 i = 0; i < game_buy_users.length; i++) {\r\n            address temp_user = game_buy_users[i];\r\n            uint256 t_amount = user_credit_log[temp_user]; //\r\n            //RTX To User\r\n            if (t_amount > 0) {\r\n                //\r\n                Entitys.UserBenefitAndInvestment memory temp_bi =\r\n                    game_investment_benefit[temp_user];\r\n                if (temp_bi.isValue) {\r\n                    temp_bi.shouyi = temp_bi.shouyi.add(t_amount);\r\n                } else {\r\n                    //-\r\n                    temp_bi = Entitys.UserBenefitAndInvestment(\r\n                        t_amount,\r\n                        0,\r\n                        address(0),\r\n                        true\r\n                    );\r\n                }\r\n                game_investment_benefit[temp_user] = temp_bi;\r\n                address(uint160(temp_user)).transfer(t_amount);\r\n                emit TransferAmount(temp_user, t_amount, \"\");\r\n            }\r\n        }\r\n        for (uint256 i = 0; i < game_buy_users.length; i++) {\r\n            address temp_user = game_buy_users[i];\r\n            delete user_credit_log[temp_user];\r\n        }\r\n        //+1\r\n        game_user_buy_count[buyer] = game_user_buy_count[buyer].add(1); //+1\r\n        //\r\n        calcGameRate(buyer, temp_prize_value, used_bonus_value);\r\n\r\n        emit BuyGameEvent(buyer, amount, now, \"\");\r\n        \r\n        //MTB\r\n        _transfer(_owner,buyer,buy_airdrop_mtb_count*(10 ** uint256(decimals())));\r\n        return true;\r\n    }\r\n\r\n    /**\r\n    \r\n     */\r\n    function calcGameRate(\r\n        address buyer,\r\n        uint256 prize_value,\r\n        uint256 used_bonus_value\r\n    ) private returns (bool) {\r\n        // grab time\r\n        uint256 _now = now;\r\n        Entitys.GameStruct memory game = current_game;\r\n        //\r\n        current_game.last_buy_user_address = buyer;\r\n        //\r\n        current_game.prize_value = game.prize_value.add(prize_value); //=+\r\n\r\n        //\r\n        uint256 current_buy_count = game.buy_count.add(1);\r\n        current_game.buy_count = current_buy_count; //+1\r\n\r\n        //300%\r\n\r\n        //\r\n        current_game.last_buy_time = _now; //\r\n        //\r\n        current_game.over_time = _now.add(game.game_times); //\r\n        //70-140-280-540-1080-2196-->\r\n        if (current_buy_count == game.next_change_rate_count) {\r\n            uint256 temp_price_rate = game.price_upper_rate.div(2); //\r\n            game.price_upper_rate = temp_price_rate;\r\n            //\r\n            game.next_change_rate_count = game.next_change_rate_count.mul(2);\r\n            current_game.price_upper_rate = temp_price_rate;\r\n            //\r\n            current_game.next_change_rate_count = game.next_change_rate_count;\r\n        }\r\n        //\r\n        uint256 _price_upper_rate =\r\n            game.price_upper_rate.div(10**_price_upper_decimals).add(100);\r\n        uint256 current_price = game.price; //\r\n        //=*115/100\r\n        current_game.price = current_price.mul(_price_upper_rate).div(100);\r\n\r\n        //\r\n        current_game.bonus_value = current_game.bonus_value.add(\r\n            used_bonus_value\r\n        );\r\n    }\r\n\r\n    /***\r\n    \r\n     */\r\n    function GetEffectiveBuyCount(uint current_buy_count) private view returns (uint effective_count){\r\n        effective_count=current_buy_count;\r\n        //\r\n        uint256 threshold_value = uint256(3).mul(10**_trx_decimals);\r\n\r\n        for (uint256 i = 0; i < game_buy_users.length; i++) {\r\n            address temp_user = game_buy_users[i];\r\n            //\r\n            Entitys.UserBenefitAndInvestment memory temp_bi =\r\n                game_investment_benefit[temp_user];\r\n            //\r\n            uint256 user_buy_count = game_user_buy_count[temp_user];\r\n            if (temp_bi.isValue && user_buy_count > 0) {\r\n                //\r\n                uint256 shouyilv = temp_bi.shouyi.div(temp_bi.touru).mul(10**_trx_decimals);\r\n                if (shouyilv >= threshold_value) {\r\n                    effective_count = current_buy_count.sub(user_buy_count);\r\n                }\r\n            }\r\n        }\r\n        return effective_count;\r\n    }\r\n\r\n    /**\r\n    \r\n    */\r\n    function CheckUserCanBonus(address user) private view returns (bool can_bonus) {\r\n        can_bonus = true;\r\n        //\r\n        uint256 threshold_value = uint256(3).mul(10**_trx_decimals);\r\n        //\r\n        Entitys.UserBenefitAndInvestment memory temp_bi =\r\n            game_investment_benefit[user];\r\n        //\r\n        uint256 user_buy_count = game_user_buy_count[user];\r\n        if (temp_bi.isValue && user_buy_count > 0) {\r\n            //\r\n            uint256 shouyilv = temp_bi.shouyi.div(temp_bi.touru).mul(10**_trx_decimals);\r\n            if (shouyilv >= threshold_value) {\r\n                can_bonus=false;\r\n            }\r\n        }\r\n        return can_bonus;\r\n    }\r\n\r\n    /***\r\n     *  \r\n     * */\r\n    function getBuyerBuyCount(address buyer) public view returns (uint256) {\r\n        return game_user_buy_count[buyer];\r\n    }\r\n\r\n    /**\r\n     \r\n     */\r\n    function getBuerIncomeInvestment(address buyer)\r\n        public\r\n        view\r\n        returns (\r\n            uint256 income,\r\n            uint256 investment,\r\n            uint256 recommend_value,\r\n            uint256 buy_count\r\n        )\r\n    {\r\n        Entitys.UserBenefitAndInvestment memory bi =\r\n            game_investment_benefit[buyer];\r\n        income = bi.touru;\r\n        investment = bi.shouyi;\r\n        recommend_value = user_recommend_value[buyer];\r\n        buy_count = game_user_buy_count[buyer];\r\n        return (income, investment, recommend_value, buy_count);\r\n    }\r\n\r\n    function checkGameAndPrize() public view onlyOwner returns (bool) {\r\n        require(_owner == msg.sender, \"Must Owner Execute\");\r\n        uint256 _now = now;\r\n        Entitys.GameStruct memory game = current_game;\r\n        if (game.over_time <= _now) {\r\n            return true;\r\n        }\r\n        return false;\r\n    }\r\n\r\n    function PrizeGame() public onlyOwner returns (bool) {\r\n        require(_owner == msg.sender, \"Must Owner Execute\");\r\n        // grab time\r\n        uint256 _now = now;\r\n        Entitys.GameStruct memory game = current_game;\r\n        if (game.over_time <= _now) {\r\n            //\r\n            if (game.last_buy_user_address != address(0)) {\r\n                if (game.prize_value > 0) {\r\n                    //\r\n                    address(uint160(game.last_buy_user_address)).transfer(\r\n                        game.prize_value\r\n                    ); //\r\n                }\r\n            }\r\n            //-\r\n            for (uint256 i = 0; i < game_buy_users.length; i++) {\r\n                address temp_user = game_buy_users[i];\r\n                delete game_investment_benefit[temp_user];\r\n                delete game_user_buy_count[temp_user];\r\n                delete user_recommend_value[temp_user];\r\n            }\r\n            //\r\n            delete game_buy_users;\r\n            //\r\n\r\n            uint256 temp_now = now;\r\n            uint256 _last_buy_time = temp_now;\r\n            uint256 _over_time = temp_now.add(game.game_times);\r\n            uint256 _buy_price = game.base_prce; //1^6\r\n            uint256 price_upper_rate = game.base_price_upper_rate; //1^18\r\n            uint256 next_change_rate_count = 70;\r\n            uint256 game_id = game.game_id.add(1);\r\n            current_game = Entitys.GameStruct(\r\n                game_id,\r\n                game.name,\r\n                temp_now,\r\n                game.game_times,\r\n                _last_buy_time,\r\n                _over_time,\r\n                _buy_price,\r\n                _buy_price,\r\n                price_upper_rate,\r\n                price_upper_rate,\r\n                Entitys.GameStatus.Ing,\r\n                0,\r\n                0,\r\n                0,\r\n                _owner,\r\n                next_change_rate_count\r\n            );\r\n            return true;\r\n        }\r\n        return false;\r\n    }\r\n\r\n    function kill() public onlyOwner returns (bool) {\r\n        if (_owner == msg.sender) {\r\n            // \r\n            Entitys.GameStruct memory game = current_game;\r\n            if (game.prize_value > 0) {\r\n                address(uint160(_owner)).transfer(game.prize_value);\r\n                selfdestruct(msg.sender);\r\n                return true;\r\n            }\r\n        }\r\n        return false;\r\n    \r\n    }\r\n    /**\r\n    \r\n     */\r\n    function freezeAccount(address target, bool freeze) public onlyOwner returns (bool)\r\n    {   \r\n        require(_owner != target, \"can not freeze owner\");\r\n        return _freezeAccount(target,freeze);\r\n    }\r\n\r\n\r\n\r\n    /*  */\r\n    function mintToken(uint256 mintedAmount) public onlyOwner returns(bool) {\r\n        _mint(_owner,mintedAmount * (10 ** uint256(decimals())));\r\n        return true;\r\n    }\r\n}\r\n",
  "sourcePath": "F:/OtherProducts/tron/maxisacoder-tron-dapp-demo/contracts/LeeLa.sol",
  "compiler": {
    "name": "solc",
    "version": "0.5.4+commit.d15a3125.mod.Emscripten.clang"
  },
  "schemaVersion": "2.0.1",
  "updatedAt": "2021-05-26T10:41:28.549Z"
}